:020000040800F2
:100000000000022029730008D5200008D72000082E
:10001000D9200008DB200008DD20000800000000D7
:10002000000000000000000000000000DF200008C9
:10003000E120000800000000E3200008E52000089F
:1000400079730008797300087973000879730008E0
:1000500079730008797300087973000879730008D0
:1000600079730008797300087973000879730008C0
:1000700079730008797300087973000879730008B0
:1000800079730008797300087973000879730008A0
:100090007973000879730008797300087973000890
:1000A0007973000879730008797300087973000880
:1000B0007973000879730008797300087973000870
:1000C0007973000879730008797300087973000860
:1000D0007973000879730008797300087973000850
:1000E0007973000879730008797300087973000840
:1000F0007973000879730008797300087973000830
:10010000797300087973000879730008797300081F
:10011000797300087973000879730008797300080F
:1001200079730008797300087973000879730008FF
:1001300079730008000000000000000079730008D7
:10014000797300087973000879730008ED200008BE
:1001500079730008797300087973000879730008CF
:1001600079730008797300087973000879730008BF
:100170007973000879730008000000000000000097
:0801800079730008797300088F
:1001880010B5054C237833B9044B13B10448AFF3C9
:1001980000800123237010BDC80900200000000062
:1001A800C889000808B5034B1BB103490348AFF3DE
:1001B800008008BD00000000CC090020C8890008A4
:1001C80081F0004102E000BF83F0004330B54FEA00
:1001D80041044FEA430594EA050F08BF90EA020F6D
:1001E8001FBF54EA000C55EA020C7FEA645C7FEA00
:1001F800655C00F0E2804FEA5454D4EB5555B8BF23
:100208006D420CDD2C4480EA020281EA030382EA93
:10021800000083EA010180EA020281EA0303362D25
:1002280088BF30BD11F0004F4FEA01314FF4801CF8
:100238004CEA113102D0404261EB410113F0004F0A
:100248004FEA03334CEA133302D0524263EB4303C1
:1002580094EA050F00F0A780A4F10104D5F1200E5F
:100268000DDB02FA0EFC22FA05F2801841F10001BA
:1002780003FA0EF2801843FA05F359410EE0A5F18E
:1002880020050EF1200E012A03FA0EFC28BF4CF0BF
:10029800020C43FA05F3C01851EBE37101F0004575
:1002A80007D54FF0000EDCF1000C7EEB00006EEB82
:1002B8000101B1F5801F1BD3B1F5001F0CD349080C
:1002C8005FEA30004FEA3C0C04F101044FEA445263
:1002D80012F5800F80F09A80BCF1004F08BF5FEAEA
:1002E800500C50F1000041EB045141EA050130BDCA
:1002F8005FEA4C0C404141EB0101013C28BFB1F5DC
:10030800801FE9D291F0000F04BF01460020B1FA26
:1003180081F308BF2033A3F10B03B3F120020CDAF9
:100328000C3208DD02F1140CC2F10C0201FA0CF0D7
:1003380021FA02F10CE002F11402D8BFC2F1200C3C
:1003480001FA02F120FA0CFCDCBF41EA0C019040F2
:10035800E41AA2BF01EB0451294330BD6FEA04043B
:100368001F3C1CDA0C340EDC04F11404C4F1200226
:1003780020FA04F001FA02F340EA030021FA04F338
:1003880045EA030130BDC4F10C04C4F1200220FA8F
:1003980002F001FA04F340EA0300294630BD21FACD
:1003A80004F0294630BD94F0000F83F4801306BF93
:1003B80081F480110134013D4EE77FEA645C18BF87
:1003C8007FEA655C29D094EA050F08BF90EA020F1E
:1003D80005D054EA000C04BF1946104630BD91EA16
:1003E800030F1EBF0021002030BD5FEA545C05D119
:1003F8004000494128BF41F0004130BD14F5800458
:100408003CBF01F5801130BD01F0004545F0FE41CB
:1004180041F470014FF0000030BD7FEA645C1ABF00
:10042800194610467FEA655C1CBF0B46024650EA37
:10043800013406BF52EA033591EA030F41F4002163
:1004480030BD00BF90F0000F04BF0021704730B5E9
:100458004FF4806404F132044FF000054FF00001BE
:1004680050E700BF90F0000F04BF0021704730B57F
:100478004FF4806404F1320410F0004548BF404254
:100488004FF000013EE700BF42004FEAE2014FEAA9
:1004980031014FEA02701FBF12F07F4393F07F4F84
:1004A80081F06051704732F07F4208BF704793F087
:1004B8007F4F04BF41F40021704730B54FF460749A
:1004C80001F0004521F000411CE700BF50EA01029D
:1004D80008BF704730B54FF000050AE050EA010246
:1004E80008BF704730B511F0004502D5404261EBB6
:1004F80041014FF4806404F132045FEA915C3FF4F7
:10050800D8AE4FF003025FEADC0C18BF03325FEA93
:10051800DC0C18BF033202EBDC02C2F1200300FA44
:1005280003FC20FA02F001FA03FE40EA0E0021FA69
:1005380002F11444BDE600BF70B54FF0FF0C4CF457
:10054800E06C1CEA11541DBF1CEA135594EA0C0F09
:1005580095EA0C0F00F0DEF82C4481EA030621EA44
:100568004C5123EA4C5350EA013518BF52EA03357F
:1005780041F4801143F4801338D0A0FB02CE4FF031
:100588000005E1FB02E506F00042E0FB03E54FF061
:100598000006E1FB03569CF0000F18BF4EF0010E59
:1005A800A4F1FF04B6F5007F64F5407404D25FEA55
:1005B8004E0E6D4146EB060642EAC62141EA555108
:1005C8004FEAC52040EA5E504FEACE2EB4F1FD0C4A
:1005D80088BFBCF5E06F1ED8BEF1004F08BF5FEAC8
:1005E800500E50F1000041EB045170BD06F000467A
:1005F80046EA010140EA020081EA0301B4EB5C0427
:10060800C2BFD4EB0C0541EA045170BD41F480111E
:100618004FF0000E013C00F3AB8014F1360FDEBF43
:10062800002001F0004170BDC4F10004203C35DA1F
:100638000C341BDC04F11404C4F1200500FA05F3A2
:1006480020FA04F001FA05F240EA020001F0004243
:1006580021F0004110EBD37021FA04F642EB0601B9
:100668005EEA430E08BF20EAD37070BDC4F10C04E3
:10067800C4F1200500FA04F320FA05F001FA04F2A7
:1006880040EA020001F0004110EBD37041F1000193
:100698005EEA430E08BF20EAD37070BDC4F120059E
:1006A80000FA05F24EEA020E20FA04F301FA05F206
:1006B80043EA020321FA04F001F0004121FA04F2AE
:1006C80020EA020000EBD3705EEA430E08BF20EA7E
:1006D800D37070BD94F0000F0FD101F000464000B8
:1006E80041EB010111F4801F08BF013CF7D041EA3A
:1006F800060195F0000F18BF704703F0004652003E
:1007080043EB030313F4801F08BF013DF7D043EA0E
:100718000603704794EA0C0F0CEA135518BF95EAC4
:100728000C0F0CD050EA410618BF52EA4306D1D14B
:1007380081EA030101F000414FF0000070BD50EA6A
:10074800410606BF1046194652EA430619D094EAF4
:100758000C0F02D150EA013613D195EA0C0F05D1DE
:1007680052EA03361CBF104619460AD181EA030132
:1007780001F0004141F0FE4141F470014FF00000EA
:1007880070BD41F0FE4141F4780170BD70B54FF085
:10079800FF0C4CF4E06C1CEA11541DBF1CEA135505
:1007A80094EA0C0F95EA0C0F00F0A7F8A4EB0504E7
:1007B80081EA030E52EA03354FEA013100F08880DE
:1007C8004FEA03334FF0805545EA131343EA1263A7
:1007D8004FEA022245EA111545EA10654FEA00265C
:1007E8000EF000419D4208BF964244F1FD0404F515
:1007F800407402D25B084FEA3202B61A65EB030571
:100808005B084FEA32024FF480104FF4002CB6EB2D
:10081800020E75EB030E22BFB61A754640EA0C00AD
:100828005B084FEA3202B6EB020E75EB030E22BFED
:10083800B61A754640EA5C005B084FEA3202B6EB2E
:10084800020E75EB030E22BFB61A754640EA9C00ED
:100858005B084FEA3202B6EB020E75EB030E22BFBD
:10086800B61A754640EADC0055EA060E18D04FEA7B
:10087800051545EA16754FEA06164FEAC30343EA1B
:1008880052734FEAC2025FEA1C1CC0D111F4801FE8
:100898000BD141EA00014FF000004FF0004CB6E7E1
:1008A80011F4801F04BF01430020B4F1FD0C88BF80
:1008B800BCF5E06F3FF6AFAEB5EB030C04BFB6EB8B
:1008C800020C5FEA500C50F1000041EB045170BD7E
:1008D8000EF0004E4EEA113114EB5C04C2BFD4EBAB
:1008E8000C0541EA045170BD41F480114FF0000E2F
:1008F800013C90E645EA060E8DE60CEA135594EAAB
:100908000C0F08BF95EA0C0F3FF43BAF94EA0C0FAD
:100918000AD150EA01347FF434AF95EA0C0F7FF422
:1009280025AF104619462CE795EA0C0F06D152EA76
:1009380003353FF4FDAE1046194622E750EA41065A
:1009480018BF52EA43067FF4C5AE50EA41047FF46B
:100958000DAF52EA43057FF4EBAE12E74FEA4102CE
:1009680012F5001215D211D56FF47873B3EB6252F9
:1009780012D94FEAC12343F0004343EA505311F020
:10098800004F23FA02F018BF404270474FF00000B2
:10099800704750EA013005D111F0004008BF6FF0F0
:1009A800004070474FF00000704700BF4FEA410217
:1009B800B2F1E04324BFB3F5001CDCF1FE5C0DD9B5
:1009C80001F0004C4FEAC0024CEA5070B2F1004FFF
:1009D80040EB830008BF20F00100704711F0804F02
:1009E80021D113F13872BCBF01F00040704741F4C7
:1009F80080114FEA5252C2F11802C2F1200C10FACB
:100A08000CF320FA02F018BF40F001004FEAC123AE
:100A18004FEAD32303FA0CFC40EA0C0023FA02F352
:100A28004FEA4303CCE77FEA625307D150EA013328
:100A38001EBF4FF0FE4040F44000704701F00040F8
:100A480040F0FE4040F40000704700BF53B94AB977
:100A5800002908BF00281CBF4FF0FF314FF0FF30BE
:100A680000F074B9ADF1080C6DE904CE00F006F899
:100A7800DDF804E0DDE9022304B070472DE9F04712
:100A8800089D04468E46002B4DD18A42944669D96A
:100A9800B2FA82F252B101FA02F3C2F1200120FA4D
:100AA80001F10CFA02FC41EA030E94404FEA1C489B
:100AB800210CBEFBF8F61FFA8CF708FB16E341EA97
:100AC800034306FB07F199420AD91CEB030306F11D
:100AD800FF3080F01F81994240F21C81023E63443E
:100AE8005B1AA4B2B3FBF8F008FB103344EA0344E2
:100AF80000FB07F7A7420AD91CEB040400F1FF33F7
:100B080080F00A81A74240F207816444023840EA33
:100B18000640E41B00261DB1D4400023C5E900436C
:100B28003146BDE8F0878B4209D9002D00F0EF80EF
:100B38000026C5E9000130463146BDE8F087B3FA22
:100B480083F6002E4AD18B4202D3824200F2F9800A
:100B5800841A61EB030301209E46002DE0D0C5E90D
:100B6800004EDDE702B9FFDEB2FA82F2002A40F059
:100B78009280A1EB0C014FEA1C471FFA8CFE01265C
:100B8800200CB1FBF7F307FB131140EA01410EFB00
:100B980003F0884208D91CEB010103F1FF3802D2A7
:100BA800884200F2CB804346091AA4B2B1FBF7F0A1
:100BB80007FB101144EA01440EFB00FEA64508D9C4
:100BC8001CEB040400F1FF3102D2A64500F2BB8001
:100BD8000846A4EB0E0440EA03409CE7C6F1200750
:100BE800B34022FA07FC4CEA030C20FA07F401FA96
:100BF80006F31C43F9404FEA1C4900FA06F3B1FB1F
:100C0800F9F8200C1FFA8CFE09FB181140EA014183
:100C180008FB0EF0884202FA06F20BD91CEB010120
:100C280008F1FF3A80F08880884240F28580A8F178
:100C380002086144091AA4B2B1FBF9F009FB1011CA
:100C480044EA014100FB0EFE8E4508D91CEB010168
:100C580000F1FF346CD28E456AD90238614440EA0B
:100C68000840A0FB0294A1EB0E01A142C846A6468B
:100C780056D353D05DB1B3EB080261EB0E0101FA14
:100C880007F722FA06F3F1401F43C5E90071002671
:100C98003146BDE8F087C2F12003D8400CFA02FCC7
:100CA80021FA03F3914001434FEA1C471FFA8CFED7
:100CB800B3FBF7F007FB10360B0C43EA064300FBC7
:100CC8000EF69E4204FA02F408D91CEB030300F165
:100CD800FF382FD29E422DD9023863449B1B89B21C
:100CE800B3FBF7F607FB163341EA034106FB0EF3A5
:100CF8008B4208D91CEB010106F1FF3816D28B4252
:100D080014D9023E6144C91A46EA004638E72E461D
:100D1800284605E70646E3E61846F8E64B45A9D215
:100D2800B9EB020864EB0C0E0138A3E74646EAE784
:100D3800204694E74046D1E7D0467BE7023B614432
:100D480032E7304609E76444023842E7704700BF9B
:100D580008B52DED028B9FED0B8A60EE087A17EE31
:100D6800900AFFF791FB0022074BFFF72FFAFFF7D6
:100D7800F5FD00EE100AB8EEC00A80EE080ABDECD8
:100D8800028B08BD0000C8420000E03F00000000E0
:100D9800D0B50446006BFFF777FB0DA3D3E900231A
:100DA800FFF7CAFB06460F46606AFFF76DFB0AA30A
:100DB800D3E90023FFF7C0FB02460B46304639460D
:100DC800FFF704FAFFF7F2FDE063D0BDAFF3008050
:100DD800FCA9F1D24D62403F96438B6CE7FBEF3F95
:100DE800D0B50446406BFFF74FFB0DA3D3E90023B2
:100DF800FFF7A2FB06460F46A06AFFF745FB0AA3CA
:100E0800D3E90023FFF798FB02460B4630463946E4
:100E1800FFF7DCF9FFF7CAFD2064D0BDAFF300800F
:100E2800FCA9F1D24D62403F96438B6CE7FBEF3F44
:100E380010B52DED088B864C204606F0A3F801214D
:100E4800204606F041F9204606F09AF907EE900A86
:100E5800F8EE677A7F4CC4ED007A17EE900AFFF738
:100E680013FB73A3D3E90023FFF766FB72A3D3E94F
:100E78000023FFF78BFC72A3D3E90023FFF75CFB89
:100E880071A3D3E90023FFF781FCFFF78FFD2060F2
:100E9800714B93ED000AFFF75BFF704BD3ED007ABF
:100EA80070EE676A6E4B93ED007A36EE876A6D4B8B
:100EB80093ED008A36EE486A70EE277A77EE27AA15
:100EC80078EE2AAA76EEC76A78EE269A77EEC77A7F
:100ED80037EEC88A9FED649A86EE090A07F044F84F
:100EE800DFED628A20EE280A9FED61AA80EE0ABA39
:100EF8008AEE890A07F038F820EE280AC0EE0AAA16
:100F080089EE890A07F030F820EE280AC0EE0A9A1E
:100F180088EE090A07F028F860EE288A88EE8A9A8F
:100F28009FED548A2BEE08BA94ED000AFFF710FFE4
:100F3800DFED517A20EE270A8BEE006A36EE086A5A
:100F48006AEE88AACAEE806A76EE886A69EE889A9E
:100F580089EE807A37EE087A29EE089AC9EE007A87
:100F680037EE888ADFED457AB4EEE76AF1EE10FADB
:100F780009DCDFED407AB4EEE76AF1EE10FA04D549
:100F88009FED3C6A01E09FED3D6ADFED3C7AF4EEAF
:100F9800E76AF1EE10FA09DCDFED367AF4EEE76A7B
:100FA800F1EE10FA04D5DFED336A01E0DFED336AC4
:100FB800DFED327AB4EEE77AF1EE10FA09DCDFED14
:100FC8002D7AB4EEE77AF1EE10FA04D59FED297A7E
:100FD80001E09FED2A7ADFED297AB4EEE78AF1EE97
:100FE80010FA09DCDFED237AB4EEE78AF1EE10FAA5
:100FF80004D59FED208A01E09FED208A204B1B68D5
:10100800BCEEC66A83ED0F6A1E4A1268FCEEE66AF9
:10101800C2ED106A1C4A1268BCEEC77A82ED0D7ADE
:10102800BCEEC88A83ED0D8ABDEC088B10BD00BFED
:101038006666666666660A400000000000FEAF400D
:1010480000000000804FE24000000000004CBD405E
:10105800CC0A0020F0090020C80A0020E40900207A
:10106800E8090020EC090020C2B0E1360000704217
:10107800D80FC9400000FA430000664400806D4460
:101088005C0C0020A40C0020140C002072B6FEE7B3
:1010980000B595B03022002108A806F047FC0023CF
:1010A800039304930593069307930193204A116CC5
:1010B80041F080511164126C02F080520192019A41
:1010C80002931C4B1A6842F480421A601B6803F4AE
:1010D80080430293029B012308934FF480330993C2
:1010E80002230E934FF480020F9208221092A82236
:1010F800119212930723139308A802F0D9FD98B907
:101108000F23039302230493002305934FF4A05362
:1011180006934FF480530793052103A803F028F89A
:1011280020B915B05DF804FBFFF7B0FFFFF7AEFF7D
:10113800003802400070004070B52DED048B03F0BC
:1011480067FAFFF7A5FF00F06FFC00F0C5FD00F09F
:10115800D7FC00F0F3FC00F0B9FE00F015FF00F03A
:101168006BFF00F0EDFF00F0F3FB534C002120462D
:1011780004F09AFE0821204604F096FE4F4E0C21FA
:10118800304604F091FE4E4D0021284604F08CFEB6
:101198004FF47A7003F068FA22684FF4FA735363D5
:1011A800D363326813642A6853634FF47A7003F088
:1011B8005BFA444C204600F0C3F800F0F1FA9FEDCA
:1011C800429ADFED428A9FED428ABFEE002AF7EE8F
:1011D800001AB0EE491AF0EE680AB0EE480A3D4827
:1011E80000F024FBBFEE002AF7EE001AB0EE491A11
:1011F800F0EE680AB0EE480A374800F017FB4FF4E3
:101208007A7003F031FA204600F02EFA0BE0002342
:10121800324A1360324A1360FFF70AFE032003F0D4
:1012280023FA03F01BFA03F019FA264C204600F0C3
:10123800D1F8204600F054F92046FFF7A9FD2046D2
:10124800FFF7CEFD274D0221284600F0EBFA2B8848
:1012580007EE903AF8EE677AB1EE087A67EE877A89
:10126800DFED216A87EEA67A204D85ED007A94EDB0
:10127800061AD4ED0F0A1E4B93ED000A154800F02C
:10128800F3FA164B83ED000A94ED071AD4ED100A11
:10129800184B93ED000A104800F0E6FA104B83ED66
:1012A800000A95ED007AF7EE007AB4EEE77AF1EEEF
:1012B80010FAACD4B0E700BF5C0C0020A40C0020EE
:1012C800140C0020F4090020E3A59B3C0AD7233D19
:1012D800B81E053E840A00203C0A0020E4090020CC
:1012E800E8090020800A002000F07F45C80A002095
:1012F800C40A00207C0A002010B584B04FF0FF34E7
:1013080002940193009201230A460146024803F021
:101318009BFD04B010BD00BF680B002000B585B070
:101328004FF0FF3302930123019300920A460146CE
:10133800024803F0D7FC05B05DF804FB680B0020F9
:1013480000B583B000230370437083708380C3802B
:1013580003810023C360036143618361C361036246
:1013680043628362C362036343638363C363036447
:10137800436403238DF807300DF107021A21D220A8
:10138800FFF7CCFF08238DF807300DF107021B216A
:10139800D220FFF7C3FF10238DF807300DF10702A5
:1013A8001C21D220FFF7BAFF05238DF807300DF175
:1013B80007021D21D220FFF7B1FF02238DF8073065
:1013C8000DF107023721D220FFF7A8FF03B05DF81F
:1013D80004FB000010B582B0044606236A46432188
:1013E800D220FFF789FF9DF800309DF8011041EAEF
:1013F800032109B2A1809DF802309DF8032042EA3A
:10140800032212B2E2809DF804009DF8053043EAF9
:1014180000231BB2238194ED037A07EE901AF8EEAD
:10142800E77A77EEC77AFDEEE77A17EE901A09B2F7
:10143800A18094ED047A07EE902AF8EEE77A77EE29
:10144800C77AFDEEE77A17EE902A12B2E28094EDA1
:10145800057A07EE903AF8EEE77A77EEC77AFDEE6E
:10146800E77A17EE903A1BB2238107EE901AF8EE4E
:10147800E77ADFED195A87EEA56A84ED066A07EE6A
:10148800902AF8EEE77AC7EEA56AC4ED076A07EE78
:10149800903AF8EEE77A87EEA57A84ED087ADFEDE0
:1014A8000F7A26EE276AD4ED0F5A36EE256A84EDB8
:1014B800096A66EEA76A94ED106A76EE866AC4ED4C
:1014C8000A6A27EE277AD4ED117A37EE277A84ED67
:1014D8000B7A02B010BD00BF000083420AD7233C3C
:1014E80010B52DED068B82B0044606236A463B21D3
:1014F800D220FFF701FF9DF800301B021BB29DF8B8
:101508000120134309EE103A9DF802301B021BB26A
:101518009DF80320134308EE103A9DF804301B028F
:101528001BB29DF80520134308EE903AB8EEC99A0D
:10153800DFED467A39EE279ABDEEC99A19EE103AD0
:101548001BB209EE103AB8EEC88ADFED417A38EEE0
:10155800278ABDEEC88A18EE103A1BB208EE103A78
:10156800F8EEE88ADFED3B7A78EEE78AFDEEE88A66
:1015780018EE903A1BB208EE903AB8EEC99A9FED71
:10158800367A29EE079ADFED357A29EE279AB8EEF2
:10159800C88A28EE078A28EE278AF8EEE88A68EED5
:1015A800878A68EEA78AF0EE000AB0EE490A06F0CC
:1015B8003BFCF0EE409AF0EE000AB0EE480A06F066
:1015C80033FC79EE809AF0EE000AB0EE680A06F075
:1015D8002BFC39EE800A06F0C7FC88EE000A06F0FC
:1015E800EFFB9FED1FAA20EE0A0ADFED1E9AC0EE60
:1015F800297AC4ED0C7AF1EE49AAF0EE000AB0EEB1
:10160800490A06F011FCB0EE409AF0EE000AB0EE7E
:10161800480A06F009FC39EE009AF0EE000AB0EE2E
:10162800680A06F001FC39EE000A06F09DFC8AEE15
:10163800800A06F0C5FB20EE0A0AC0EE297AC4ED3E
:101648000D7A02B0BDEC068B10BD00BF7F5CA644CE
:10165800BB4E8145F2DEFB45000080390AE81C419B
:1016680000003443D80F494038B52DED048B0446AB
:1016780000259FED208AF0EE488AB0EE489A21E0D6
:101688002046FFF7A7FEB4F9043007EE903AF8EECB
:10169800E77A39EE279AB4F9063007EE903AF8EE71
:1016A800E77A78EEA78AB4F9083007EE903AF8EEB0
:1016B800E77A38EE278A2046FFF712FF0A2002F061
:1016C800D3FF0135B5F5FA6FDADBDFED0B7A89EE7A
:1016D800277A84ED037A88EEA77A84ED047A88EE77
:1016E800277A84ED057A236BE363636B2364BDEC8F
:1016F800048B38BD000000000000FA4410B582B029
:1017080040F020008DF804000B788DF805300B4C64
:1017180000224FF48041204602F0E2FE4FF0FF33F2
:10172800022201A9064803F044FE01224FF4804139
:10173800204602F0D5FE02B010BD00BF00000240F6
:10174800BC0B002070B582B006460D4661238DF8AB
:10175800073000224FF480410F4802F0C1FE4FF0DD
:10176800FF3301220DF107010C4803F022FE00248B
:1017780008E04FF0FF3301223119084804F011F84E
:101788000134E4B2AC42F4D301224FF48041024860
:1017980002F0A6FE02B070BD00000240BC0B0020A3
:1017A80010B582B00B238DF807300DF1070100202A
:1017B800FFF7A4FF0DF107010020FFF79FFF0124A9
:1017C8008DF807400DF107012046FFF797FF8DF8C8
:1017D80007400DF107010220FFF790FF06208DF862
:1017E80007000DF10701FFF789FF8DF807400DF19C
:1017F80007011C20FFF782FF04238DF807300DF145
:1018080007011D20FFF77AFF204602F02DFF224630
:101818004FF40051024802F063FE02B010BD00BF51
:101828000000024008B5FFF78DFF08BD00230360E4
:101838004360836080ED030AC0ED040A80ED051A59
:101848008361C361036243628362C0ED0B1A80ED5A
:101858000C2A4363024B8363024BC363704700BF88
:101868000AD7A33C0AD7233C30EE600A80ED010A70
:1018780090ED037A20EE077A80ED067AD0ED047AAF
:10188800F6EE006A67EEA67AD0ED026A70EE266A76
:1018980067EEA67AD0ED0F6A67EEA67AD0ED076AF2
:1018A80077EEA67AC0ED077AD0ED056A26EEC11A62
:1018B80080ED081AD0ED0B6AB4EEE67AF1EE10FA74
:1018C8002DD536EEC76A80ED096A90ED0C6AB4EE44
:1018D800C67AF1EE10FA25DD77EE065AC0ED0A5AFF
:1018E800D0ED095AF4EEE57AF1EE10FA1DDDC0EDFF
:1018F800075AD0ED077A37EE277A31EE077A80ED6E
:101908000D7AF4EEC76AF1EE10FA18D5C0ED0D6A3B
:1019180080ED020AC0ED000A90ED0D0A7047002321
:101928004362D2E700238362DAE7D0ED0A5AF4EE85
:10193800E57AF1EE10FADCD5C0ED075AD9E7B4EE36
:10194800C76AF1EE10FAE3DD80ED0D6AE0E700000A
:1019580000B585B0002300930193029303931548C3
:10196800154A02604FF48032426083600361037657
:1019780080F82030C362114A8262C3600122C261CA
:1019880080F83030426105F0D1FA68B90423009339
:1019980001230193002302936946064805F0F4FBEE
:1019A80028B905B05DF804FBFFF770FBEEE7FFF719
:1019B8006DFBF6E7CC0A0020002001400100000F73
:1019C80000B589B000230393049305930693079306
:1019D800026803F1804303F590339A4202D009B0BC
:1019E8005DF804FB0021019103F58C335A6C42F435
:1019F80080725A645A6C02F480720192019A0291C0
:101A08001A6B42F001021A631B6B03F00103029385
:101A1800029B102303930323049303A9014802F0B4
:101A28006DFCDCE700000240F0B58BB000240594A3
:101A3800069407940894099401942E4B1A6B42F06B
:101A480080021A631A6B02F080020192019A0294D2
:101A58001A6B42F004021A631A6B02F00402029233
:101A6800029A03941A6B42F001021A631A6B02F08D
:101A780001020392039A04941A6B42F002021A6359
:101A88001B6B03F002030493049B1B4E224640F693
:101A98009401304602F024FD184D22464FF4C4410B
:101AA800284602F01DFD01224FF48061284602F00D
:101AB80017FD40F6940305930127069707940894A9
:101AC80005A9304602F01AFC41F228130593069442
:101AD800079405A9304602F011FC4FF4CC43059356
:101AE80006970794089405A9284602F007FC0BB04E
:101AF800F0BD00BF0038024000080240000002406C
:101B080008B50B480B4B03600B4B43600023836005
:101B1800C3604FF48042026143618361C361036221
:101B280003F002F800B908BDFFF7B0FAFBE700BF01
:101B3800140B002000540040A086010008B50B4893
:101B48000B4B03600B4B436000238360C3604FF46F
:101B58008042026143618361C361036202F0E4FF72
:101B680000B908BDFFF792FAFBE700BF680B002039
:101B780000580040A08601002DE9F0438DB00023F5
:101B88000793089309930A930B9303684B4A93426C
:101B980008D04B4A93422AD04A4A93424DD00DB0BE
:101BA800BDE8F08300250095474C236B43F0020302
:101BB8002363236B03F002030093009BC023079366
:101BC800122308930123099303230A9304230B93F5
:101BD80007A93E4802F092FB0195236C43F40013D9
:101BE8002364236C03F400130193019BD7E70025BA
:101BF8000295354C236B43F002032363236B03F0F8
:101C080002030293029B4FF4406307931223089345
:101C18000123099303230A9304230B9307A92B4851
:101C280002F06CFB0395236C43F480032364236C5C
:101C380003F480030393039BB1E700250495224C2A
:101C4800236B43F004032363236B03F0040304931F
:101C5800049B0595236B43F001032363236B03F077
:101C680001030593059B4FF4007307934FF0120986
:101C7800CDF820904FF00108CDF8248003270A976B
:101C880004260B9607A9124802F038FB4FF480731C
:101C98000793CDF82090CDF824800A970B9607A9D2
:101CA8000C4802F02BFB0695236C43F400032364D5
:101CB800236C03F400030693069B70E7005400406E
:101CC80000580040005C0040003802400004024018
:101CD800000802400000024008B50E480E4B0360A1
:101CE8004FF48273436000238360C36003614361E0
:101CF8004FF4007282611822C261036243628362F8
:101D08000A23C36203F0F6FA00B908BDFFF7BEF96B
:101D1800FBE700BFBC0B00200030014000B589B0D4
:101D28000023039304930593069307930268154BC6
:101D38009A4202D009B05DF804FB0021019103F535
:101D480084335A6C42F480525A645A6C02F48052BA
:101D58000192019A02911A6B42F001021A631B6BFD
:101D680003F001030293029BE023039302230493ED
:101D7800032306930523079303A9034802F0BEFA39
:101D8800D8E700BF003001400000024084B003687B
:101D9800B3F1804F07D0174A934211D0164A9342A5
:101DA8001BD004B0704700230193144B1A6C42F007
:101DB80001021A641B6C03F001030193019BF0E715
:101DC800002302930D4B1A6C42F004021A641B6C38
:101DD80003F004030293029BE3E700230393074BFA
:101DE8001A6C42F040021A641B6C03F04003039320
:101DF800039BD6E700080040001800400038024066
:101E080000B589B0002303930493059306930793C1
:101E18000368B3F1804F08D0274A93421DD0274A60
:101E2800934231D009B05DF804FB00230093244BA2
:101E38001A6B42F001021A631B6B03F00103009353
:101E4800009B48F20403039302230493012307939E
:101E580003A91C4802F052FAE4E700230193184B47
:101E68001A6B42F002021A631B6B03F00203019320
:101E7800019B4FF40073039302230493079303A970
:101E8800114802F03BFACDE7002302930C4B1A6B82
:101E980042F002021A631B6B03F002030293029BD7
:101EA8004FF480430393022304930923079303A960
:101EB800054802F023FAB5E7000800400018004082
:101EC80000380240000002400004024000B58FB014
:101ED80000230A930B930C930D9308930993019392
:101EE80002930393049305930693079325484FF0B1
:101EF80080420260A7224260836040F2E732C260FB
:101F08000361836103F036FE50BB4FF480530A939C
:101F18000AA91C4803F039FF28BB1A4803F056FEEB
:101F280020BB00230893099308A9164804F03EF83B
:101F3800F8B960230193002202920392059201A945
:101F4800104803F0A7FEB8B9082201A90D4803F00C
:101F5800A1FEA0B90B48FFF753FF0FB05DF804FBD3
:101F6800FFF794F8D1E7FFF791F8D6E7FFF78EF877
:101F7800D7E7FFF78BF8DCE7FFF788F8E4E7FFF728
:101F880085F8E7E75C0C002000B58FB000230A93C2
:101F98000B930C930D930893099301930293039366
:101FA80004930593069307932148224A0260A722C7
:101FB8004260836040F2E732C2600361836103F0EC
:101FC800D9FD28BB4FF480530A930AA9184803F097
:101FD800DCFE00BB164803F0F9FDF8B900230893AE
:101FE800099308A9124803F0E1FFD0B960230193CF
:101FF80000230293039305930C2201A90C4803F0D4
:1020080049FE88B90A48FFF7FBFE0FB05DF804FBEC
:10201800FFF73CF8D6E7FFF739F8DBE7FFF736F8C4
:10202800DCE7FFF733F8E1E7FFF730F8EAE700BF4E
:10203800A40C00200008004000B58DB000230893D0
:1020480009930A930B9301930293039304930593C3
:10205800069307931B481C4A0260A72242608360CC
:1020680040F2E732C2600361836103F083FDE0B9A7
:102078004FF48053089308A9124803F086FEB8B9B4
:10208800104803F0A3FDB0B9602301930022029227
:102098000392059201A90B4803F0FCFD70B90948A9
:1020A800FFF7AEFE0DB05DF804FBFEF7EFFFDFE7CC
:1020B800FEF7ECFFE4E7FEF7E9FFE5E7FEF7E6FFEA
:1020C800EDE700BF140C002000180040FEE7FEE713
:1020D800FEE7FEE7FEE770477047704708B502F075
:1020E800B1FA08BD08B5024800F030FC08BD00BFD1
:1020F800BC21002082B0002100910B4B5A6C42F4A5
:1021080080425A645A6C02F480420092009A01910B
:102118001A6C42F080521A641B6C03F080530193CE
:10212800019B02B0704700BF00380240034AD2F852
:10213800883043F47003C2F88830704700ED00E03F
:1021480008B500220F49104803F076FF70B90F490F
:102158000D4803F088FF60B90D490B4804F017FEDD
:1021680050B9094803F096FF48B908BDFEF78EFF3D
:10217800EDE7FEF78BFFEFE7FEF788FFF1E7FEF7E5
:1021880085FFF2E704000020EC0C0020700000201E
:102198005400002012230B800048704720000020C4
:1021A80004230B800048704734000020002393422A
:1021B8001ED200B510E00CF1370C01F813C0000175
:1021C8004FEA430C0CF1010C4FF0000E01F80CE043
:1021D8000133DBB2934209D24FEA107CB0F1204FB1
:1021E800E9D20CF1300C01F813C0E8E75DF804FB04
:1021F8007047000038B50B4BD3F8100AD3F8144ACF
:10220800D3F8183AC01800D138BD074D0822A91CC8
:10221800FFF7CCFF042205F112012046FFF7C6FFA5
:10222800F2E700BF0070FF1F3800002008B51A232E
:102238000B80FFF7DFFF014808BD00BF3800002012
:1022480008B50A4628B90549054804F0C4FB0348FF
:1022580008BD0249024804F0BEFBF8E7BC0F0020A5
:10226800F889000810B50A46034C2146034804F0D3
:10227800B2FB204610BD00BFBC0F0020108A00082A
:1022880008B50A4628B90549054804F0A4FB0348DF
:1022980008BD0249024804F09EFBF8E7BC0F002085
:1022A800248A000808B50A4628B90549054804F0F3
:1022B80092FB034808BD0249024804F08CFBF8E78A
:1022C800BC0F0020308A00080020704700207047AB
:1022D8000020704710B50146044C204604F069FD03
:1022E800204604F06FFD002010BD00BFEC0C00205C
:1022F80010B5064C00220649204604F04FFD05495A
:10230800204604F056FD002010BD00BFEC0C002054
:10231800BC190020BC11002030B589B000230393FC
:1023280004930593069307930368B3F1A04F01D074
:1023380009B030BD00250195164C236B43F001030D
:102348002363236B03F001030193019B4FF4C053F4
:10235800039302230493032306930A23079303A9F1
:102368000D4801F0CBFF636B43F080036363029574
:10237800636C43F480436364636C03F480430293A7
:10238800029B2A462946432002F0C2F8432002F065
:10239800F7F8CDE7003802400000024008B500F524
:1023A8007171D0F8040403F08AFE08BD08B5C1EBCA
:1023B800C10300EB8303D3F80822D0F8040403F028
:1023C800AAFE08BD08B5C1EBC10300EB83039A6CF4
:1023D800D0F8040403F0DBFE08BD08B5D0F8040407
:1023E80003F07BFF08BD10B50446C3683BB1022B60
:1023F80001D1012104E0FEF749FE012100E000219E
:10240800D4F8040403F04FFFD4F8040403F01EFFCB
:1024180010BD000010B50446D0F8040403F046FFD0
:102428002268D2F8003E43F00103C2F8003E236A56
:1024380023B1034A136943F00603136110BD00BFBB
:1024480000ED00E008B5D0F8040403F039FF08BD3A
:1024580008B5D0F8040403F068FF08BD08B5D0F843
:10246800040403F04EFF08BD08B5D0F8040403F0D7
:1024780070FF08BD08B5D0F8040403F06CFF08BD70
:1024880002780AB10020704710B503461548C0F815
:102498000434C3F8C4024FF0A0430360042343602C
:1024A8000222C260002303618261C3610362436246
:1024B800C362036300F0F0F880B90A4C802120461B
:1024C80000F01DFE40220021204600F0F2FD80228F
:1024D8000121204600F0EDFD002010BDFEF7D6FDDD
:1024E800EBE700BFBC210020D0F8C43211F0800F08
:1024F80008D101F07F01C1EBC10103EB810191F823
:10250800FE01704701F07F01C1EBC10103EB8101BE
:1025180091F83E00704708B5D0F8C40200F012FDEB
:1025280008BD000000487047C425002070470328F4
:1025380005D8DFE800F005040205012070470320F4
:10254800704708B5D0F8C40200F03DF9FFF7EFFF77
:1025580008BD08B594461A466346D0F8C40200F090
:1025680044FCFFF7E4FF08BD08B5D0F8C40200F04A
:1025780081FCFFF7DCFF08BD08B5D0F8C40200F005
:1025880019FDFFF7D4FF08BD08B5D0F8C40200F064
:1025980055FDFFF7CCFF08BD08B5D0F8C40200F020
:1025A80010FCFFF7C4FF08BD08B5D0F8C40200F05E
:1025B800D2FCFFF7BCFF08BD08B5D0F8C40200F094
:1025C80092FCFFF7B4FF08BD2DE9F04383B0D0F8C3
:1025D8000080C1EBC10300EB83035A6D1B6D9A4267
:1025E80054D807460C469B1AC1EBC10200EB820285
:1025F800526C9A4200D31A4602F103094FEA99092C
:1026080015E006F103094FEA9909C4EBC40507EB85
:102618008505A96C3B7C0093B3B2E2B2404601F059
:10262800BBF8AB6C3344AB646B6D33446B6508EB40
:10263800441303F510639B699BB24B4512D3C4EB5B
:10264800C40207EB8202516D136D99420AD24BB155
:102658005B1AC4EBC40207EB8202566C9E42D0D3CD
:102668001E46CEE7C4EBC40007EB80073A6D7B6DCE
:102678009A420FD804F00F040123A340D8F8344835
:1026880024EA0304C8F83448002000E0012003B01D
:10269800BDE8F0830020FAE770B58AB0002800F0A2
:1026A80090800546046890F8BD333BB3032385F852
:1026B800BD33E36B13F4807F01D100232B612868BD
:1026C80000F006FE2C4654F8106BEC460FCCACE834
:1026D8000F000FCCACE80F0094E803008CE803006F
:1026E8002B1D0ECB304600F035FD044658B10223B1
:1026F80085F8BD33012420460AB070BD80F8BC338C
:10270800FFF70AFED2E70021286801F05FFA2346A6
:1027180016E0C3EBC30205EB8202012182F83D10EB
:1027280082F83C30A2F84230002182F83F10516410
:102738009164C3EBC30205EB820211650133DBB27E
:1027480069688B42E5D316E0C4EBC40305EB830349
:10275800002283F8FD2183F8FC4183F8FF21C3F8A8
:102768000422C3F80822C4EBC40305EB8303C3F8AF
:1027780010220134E4B2A142E6D82C4654F8106B7A
:10278800EC460FCCACE80F000FCCACE80F0094E897
:1027980003008CE803002B1D0ECB304600F0D4FD5F
:1027A800044620B1022385F8BD330124A3E70023A2
:1027B80085F83830012385F8BD33286801F0C3F95E
:1027C80099E7012497E7026890F8BC33012B19D0E8
:1027D80010B50446012380F8BC33836A012B09D065
:1027E800206800F06FFD206801F09FF9002084F850
:1027F800BC0310BD8369012BF2D0936B43F4803383
:102808009363EDE70220704770B504460D460068F3
:10281800066C00EB411303F530639A6821690129BE
:1028280011D034498E424ED03DB9C5EBC50304EBF7
:102838008303D3F81032002B56D0E9B22046FFF7B5
:10284800B5FD002070BD12F0080F09D02A498E424C
:10285800F7D912F4004FF4D04FF400429A60F0E731
:1028680012F0200F02D020229A60EAE712F0280F17
:10287800E7D121498E4206D912F4004F03D04FF414
:1028880000429A60DDE7C5EBC50204EB8202D2F88C
:1028980004121B69C3F31203CB1AC2F81432D2F81C
:1028A80008320B44C2F8083215B9D2F8103223B1F5
:1028B800E9B22046FFF77AFDC3E704F571720121FA
:1028C80001F0C6F9F4E712F4004F03D04FF40042C8
:1028D8009A60B6E712F0200F01D020229A60E9B280
:1028E8002046FFF763FDACE704F57172002101F0A3
:1028F800AFF9A2E70A31544F0A30544F38B50446AD
:1029080003681D6C03EB4113D3F8081B0E4A95426C
:1029180007D903F5306311F4004F02D04FF4004299
:102928009A602046FFF73AFD074B9D4202D923697A
:10293800012B01D0002038BD04F5717201212068F7
:1029480001F086F9F6E700BF0A30544F2DE9F84F39
:1029580004460568284601F035F908B1BDE8F88F46
:102968000646206801F0FDF80028F7D0206801F03D
:10297800F8F810F0020F04D02268536903F002033C
:102988005361206801F0EDF810F0100F13D02268A1
:10299800936923F0100393612F6A07F00F08C7F3B8
:1029A8004343022B68D0062B00F084802268936989
:1029B80043F010039361206801F0D3F810F4002F5E
:1029C80040F08A80206801F0CCF810F4802F40F0A5
:1029D800CC80206801F0C5F80028C0F23681206854
:1029E80001F0BFF810F4006F0AD0D5F8083813F0DA
:1029F800010F40F044812268536903F40063536176
:102A0800206801F0AEF810F4805F40F03C81206847
:102A180001F0A7F810F4005F40F09181206801F000
:102A2800A0F810F0080F40F0A281206801F099F892
:102A380010F4801F40F0A481206801F092F810F48F
:102A4800001F40F0A781206801F08BF810F0804F3C
:102A580040F0AA81206801F084F810F0040F3FF4D8
:102A68007DAF23685D6815F0040F40F0A6812268E9
:102A780053682B43536071E747F6F0731F4295D0B4
:102A88004FEA171BC8EBC80904EB8909C7F30A12F8
:102A9800D9F80812284600F0B3FFCBF30A02D9F898
:102AA80008321344C9F80832D9F814321A44C9F85C
:102AB80014227BE7082204F57171284600F0A0FF74
:102AC800C7F30A17C8EBC80204EB8202D2F8143223
:102AD8001F44C2F8147269E7206801F046F80746F7
:102AE800B04616E005EB48130122C3F8082B41460F
:102AF8002046FFF789FE1BE005EB48130822C3F8C0
:102B0800082B41462046FFF7F9FE14E008F10108BA
:102B18007F08002F3FF456AF17F0010FF6D05FFA89
:102B280088F1206801F031F8814610F0010FD9D101
:102B380019F0080FE0D119F0100F04D005EB481375
:102B48001022C3F8082B19F0200F04D005EB481306
:102B58002022C3F8082B19F4005FD7D005EB4813DF
:102B68004FF40052C3F8082BD0E7206801F005F8AD
:102B78000746B04629E051462046FFF723FC19F0E6
:102B8800080F04D005EB48130822C3F8082919F0E8
:102B9800100F04D005EB48131022C3F8082919F0C8
:102BA800400F04D005EB48134022C3F8082919F058
:102BB800020F04D005EB48130222C3F8082919F0C4
:102BC800800F3DD108F101087F08002F3FF401AFC5
:102BD80017F0010FF6D05FFA88FA5146206800F026
:102BE800DDFF814610F0010FC9D008F00F03012165
:102BF80001FA03F2D5F8343823EA0203C5F8343869
:102C080005EB4813C3F8081923698B42B3D1C8EB05
:102C1800C80304EB8303596C9A6C0A449A64B8F1AC
:102C2800000FA8D1C8EBC80304EB83031B6D002B6E
:102C3800A1D104F571720121206801F009F89AE721
:102C480041462046FFF7C0FCBCE7D5F8043823F01E
:102C58000103C5F8043894F8F433012B08D0204652
:102C6800FFF7F0FB2268536903F000435361B6E6AF
:102C7800002184F8F413204600F045FAF2E72046D4
:102C8800FFF7C8FBB7E605F500677B6823F001038B
:102C98007B601021206800F021FB20E005EB461343
:102CA8004FF67F31C3F80819D3F8002922F400122F
:102CB800C3F80029D3F8002942F00062C3F80029BC
:102CC800C3F8081BD3F8002B22F40012C3F8002B1A
:102CD800D3F8002B42F00062C3F8002B013663687A
:102CE800B342DBD8FB6943F00113FB61236BDBB113
:102CF800D7F8843043F00B03C7F884307B6C43F07B
:102D08000B037B64D5F8003823F4FE63C5F800385C
:102D180004F57172217C206800F09AFF22685369DB
:102D280003F48053536172E67B6943F4005343F024
:102D38002B037B613B6943F00B033B61E2E72068AF
:102D480000F075FF206800F0C7FBE060256801F01F
:102D5800BFFA0146227B284600F042FA2046FFF7D8
:102D680042FB2268536903F40053536156E6204638
:102D7800FFF733FB2268536903F00803536154E6F5
:102D880000212046FFF76AFB2268536903F4801389
:102D9800536151E600212046FFF75AFB2268536928
:102DA80003F4001353614EE62046FFF75DFB2268EB
:102DB800536903F0804353614CE62046FFF75AFB02
:102DC80055E690F8BC33012B0DD010B5044601230D
:102DD80080F8BC3380F83810006800F096FE0020B8
:102DE80084F8BC0310BD0220704738B505468C46F0
:102DF80011F0800F29D101F00F0ECEEBCE04A40004
:102E080004F5FC740444211DCEEBCE0E00EB8E0EAF
:102E180000208EF8FD010CF00F0C81F800C08A60CC
:102E2800CB704A780AB1A1F806C0022B1DD095F8DC
:102E3800BC33012B1CD0012385F8BC33286800F073
:102E48005CFB002085F8BC0338BD01F00F00C0EB27
:102E5800C0018900383129440431C0EBC00005EBBA
:102E68008000012480F83D40D5E700230B71DEE7A0
:102E78000220E9E710B504460A4611F0800F20D178
:102E880001F00F00C0EBC0039B0003F5FC73234463
:102E9800191DC0EBC00004EB8000002380F8FD3151
:102EA80002F00F020A7094F8BC33012B19D00123E9
:102EB80084F8BC33206800F06FFB002084F8BC0362
:102EC80010BD01F00F00C0EBC0039B003833234452
:102ED800191DC0EBC00004EB8000012380F83D30D1
:102EE800DEE70220ECE710B501F00F04C4EBC401E3
:102EF800890001F5FC7101440431C4EBC40C00EBFA
:102F08008C0CCCF80822CCF810320023CCF8143200
:102F18008CF8FD318CF8FC410369012B06D064B9AB
:102F2800DAB2006800F0A8FB002010BDC4EBC40CA6
:102F380000EB8C0CCCF80C22F1E7DAB2006800F058
:102F480043FCF1E701F00F01C1EBC10100EB810186
:102F5800D1F81402704710B501F00F04C4EBC40196
:102F68008900383101440431C4EBC40C00EB8C0CEB
:102F7800CCF84820CCF850300023CCF8543001234A
:102F88008CF83D308CF83C400369012B06D064B9BD
:102F9800DAB2006800F070FB002010BDC4EBC40C6E
:102FA80000EB8C0CCCF84C20F1E7DAB2006800F0AA
:102FB8000BFCF1E738B501F00F054268954239D8A6
:102FC80004460B4611F0800F1FD1C1EBC1018900E7
:102FD80001F5FC7101440431C3EBC30300EB830327
:102FE800002283F8FD2101238B700D7094F8BC3307
:102FF800012B21D0012384F8BC33206800F02AFD7E
:103008008DB1002084F8BC0338BDC5EBC50189002B
:10301800383101440431C5EBC50300EB83030122B9
:1030280083F83D20DFE704F57172217C206800F009
:103038000FFEE6E70120E7E70220E5E701F00F03CE
:103048004268934231D810B5044611F0800F1ED162
:10305800C3EBC301890001F5FC7101440431C3EBE2
:10306800C30200EB8202002082F8FD0100228A7070
:103078000B7094F8BC33012B19D0012384F8BC33AE
:10308800206800F014FD002084F8BC0310BDC3EBD9
:10309800C3018900383101440431C3EBC30200EB9A
:1030A8008202012082F83D00E0E7012070470220FB
:1030B800ECE710B40468606A31B940EA0240A062E3
:1030C80000205DF8044B70478C46A36A00EB134060
:1030D800002308E003F1400104EB8101496800EB9B
:1030E80011400133DBB20CF1FF318B42F2D340EADD
:1030F80002400CF13F0104EB81014860E0E70368FE
:10310800596200207047704782B000230193019BE9
:10311800013301930E4A934214D80369002BF6DA5F
:1031280000230193036943F001030361019B013309
:103138000193074A934208D8036913F0010FF5D1A8
:10314800002000E0032002B070470320FBE700BF27
:10315800400D030084B010B5044603A880E80E00B3
:10316800089B012B1FD1A36B23F48033A363E3686F
:1031780023F4840323F04003E360E36823F440135B
:10318800E3600F9B012B09D02046FFF7BDFF069B8C
:10319800012B1BD0BDE8104004B07047E36843F42E
:1031A8008013E360F0E7E36843F04003E360204600
:1031B800FFF7AAFF0C9B23B9A36B43F48033A363E7
:1031C800E5E7A36B23F48033A363E0E7A36843F048
:1031D8000603A360A36843F02003A360DAE70000B6
:1031E800022A0AD00921C26822F47052C260C36858
:1031F80043EA8123C36000207047234B0B44234AD2
:1032080093422FD9224B0B44224A93422CD9A1F541
:103218007403A3F51053204A934227D9A1F183736D
:10322800A3F5E7431D4A934222D31D4B0B441D4A85
:1032380093421FD91C4B0B441C4A93421CD31C4B72
:103248000B441C4A934219D3A1F1B773A3F5585301
:10325800194A934214D3194B0B44194A934211D279
:103268000721C0E70F21BEE70E21BCE70D21BAE711
:103278000C21B8E70B21B6E70A21B4E70921B2E728
:103288000821B0E70621AEE7405327FFFF340C00C2
:10329800401E1BFF3F420F007F4F120020D6130035
:1032A80060B6E5FE5FE3160000D3CEFE40771B0054
:1032B800C05BB3FEC091210020753800E05459FE70
:1032C800E09C4100836843F001038360002070475D
:1032D800836823F0010383600020704782B00023D5
:1032E8000193890141F020010161019B01330193A0
:1032F800054A934205D8036913F0200FF5D1002041
:1033080000E0032002B07047400D030082B00023A4
:10331800019310230361019B01330193054A9342F2
:1033280005D8036913F0100FF5D1002000E0032041
:1033380002B07047400D0300D0F800381943C0F8B8
:10334800001800207047000084B02DE9F0410446C1
:1033580007A880E80E00002306E003F1400204EB12
:1033680082020021516001330E2BF6D9119F27BB31
:10337800D4F8043843F00203C4F80438A36B43F4C8
:103388000013A363A36B23F40023A363A36B23F4A9
:103398008023A3630023C4F8003E04F50065D4F835
:1033A8000038C4F800380C9B012B14D1099B6BB969
:1033B80000212046FFF7C0FF11E0A36B23F40013A0
:1033C800A363A36B43F40023A363E3E7012120462F
:1033D800FFF7B2FF03E003212046FFF7ADFF1021FE
:1033E8002046FFF77BFF804608B14FF001082046D2
:1033F800FFF78CFF08B14FF0010800232B616B61C8
:10340800EB610AE0C3B94FF00060C2F8000900227E
:103418000A614FF67F328A6001330799994210D9C1
:1034280004EB431202F51061D2F800090028E9DB29
:103438000020C2F80009EAE74FF09040C2F80009FE
:10344800E5E700230AE0C3B14FF0904CC2F800CB87
:10345800002202614FF67F3282600133994211D90E
:1034680004EB431202F53060D2F8006B002EEADB61
:103478004FF0000CC2F800CBEAE74FF0006CC2F83E
:1034880000CBE5E72B6923F480732B610023A3614C
:103498006FF0804363610A9B1BB9A36943F0100373
:1034A800A361A2690B4B1343A3610D9B1BB1A369D5
:1034B80043F00803A361012F04D04046BDE8F04162
:1034C80004B07047A36943F0804343F00403A36149
:1034D800F3E700BF00383C80D0F8083813F0060343
:1034E80007D0022B07D0062B01D00F2070470220EF
:1034F8007047002070470220704710B591F800C04F
:103508004B78012B23D000F5006ED0F81C380CF056
:103518000F040122A24043EA0243C0F81C3800EB22
:103528004C10D0F8003B13F4004F0ED1D0F8003BFC
:103538008A68C2F30A02C97842EA8142134343F017
:10354800805343F40043C0F8003B002010BDD0F87E
:103558001C280CF00F0E03FA0EF39BB21343C0F8AD
:103568001C3800EB4C10D0F8003913F4004FECD1A4
:10357800D0F800398A68C2F30A02C97842EA81425F
:1035880042EA8C5C43EA0C0343F0805343F4004363
:10359800C0F80039D9E7000030B40B784A78012A1E
:1035A80026D000EB4313D3F8002B002A52DBD0F8C7
:1035B8003C480A7802F00F024FF0010C0CFA02F2B4
:1035C80024EA0242C0F83C28D0F81C28097801F007
:1035D8000F010CFA01FC22EA0C42C0F81C28D3F8AF
:1035E800001B234A0A40C3F8002B002030BC704758
:1035F80000EB4313D3F80029002A1EDBD0F83C580F
:103608000A7802F00F02012404FA02F292B225EAC3
:103618000202C0F83C28D0F81C28097801F00F01F4
:103628008C40A4B222EA0404C0F81C48D3F800195C
:10363800104A0A40C3F80029D7E7D3F8002942F016
:103648000062C3F80029D3F8002942F08042C3F889
:103658000029D3E7D3F8002B42F00062C3F8002B0F
:10366800D3F8002B42F08042C3F8002B9FE700BF3D
:103678000078F3EF007833EC70B40B784C78012CB9
:1036880027D000EB431000F530631C69E40CE40418
:103698001C611C6924F0FF5424F4C0141C614C699B
:1036A8000CB18C684C611C6944F400241C611C69D1
:1036B8008D68C5F3120C44EA0C041C61012A66D01B
:1036C800D0F8003B43F00443C0F8003B002070BC36
:1036D80070474C696CBB00EB4314D4F8105925F0C3
:1036E800FF5525F4C015C4F81059D4F8105945F4FD
:1036F8000025C4F81059D4F81059ED0CED04C4F89D
:103708001059012A34D000EB4313D3F8002942F0B2
:103718000442C3F800294B69002BD7D0D0F83438BD
:103728000A7802F00F0101228A401343C0F83438A6
:10373800CCE700EB431404F510642569ED0CED04A7
:103748002561256925F0FF5525F4C01525618D688B
:103758004E69AE4200D94D61256945F400252561C1
:1037680025694E69C6F3120C45EA0C052561C8E7C0
:103778000A691AB100EB4311C1F8142900EB431090
:10378800D0F8002942F00442C0F800299EE7CA6830
:10379800002A95D05A6193E710B59DF8084084B97E
:1037A80003334FEA930E4FF0000C08E000EB0233AE
:1037B80003F5805351F8044B1C600CF1010CF445DF
:1037C800F4D3002010BD0000F0B583B00B784C781E
:1037D800012C33D000EB431303F5306CDCF81040B8
:1037E800E40CE404CCF81040DCF8104024F0FF545A
:1037F80024F4C014CCF810404C69002C40F0CA8066
:10380800DCF810408D68C5F312052C43CCF8104045
:10381800DCF8104044F40024CCF81040012A00F0F1
:10382800D380CA78012A00F0D680D3F8002B42F062
:103838000442C3F8002B002003B0F0BD4C6984BBE0
:1038480000EB4314D4F8105925F0FF5525F4C015A2
:10385800C4F81059D4F8105945F40025C4F8105983
:10386800D4F81059ED0CED04C4F81059012A4FD0C2
:1038780000EB4313D3F8004944F00444C3F800496B
:10388800CC78012C6DD04B69002BD4D0D0F83438CB
:103898000A7802F00F0101228A401343C0F8343835
:1038A800C9E700EB4314D4F81059ED0CED04C4F843
:1038B8001059D4F8105925F0FF5525F4C015C4F84F
:1038C8001059D4F810598E684F6907EB060C0CF1A3
:1038D800FF3CBCFBF6FC494E06EACC4C45EA0C051D
:1038E800C4F81059D4F810594E69C6F31206354376
:1038F800C4F8105904F51064CD78012DB6D12569A6
:1039080025F0C0452561256945F000552561ADE7DD
:103918000A691AB100EB4314C4F81429CA78012AB9
:1039280008D000EB4313D3F8002942F00442C3F84F
:10393800002980E7D0F8082812F4807F08D100EB2E
:103948004311D1F8002942F00052C1F80029E8E7F4
:1039580000EB4311D1F8002942F08052C1F8002948
:10396800DFE7D0F8084814F4807F0CD1D3F8004979
:1039780044F00054C3F8004900928B8A0A78C96859
:10398800FFF70AFF57E7D3F8004944F08054C3F81B
:103998000049F1E78D682C44013CB4FBF5F4DCF8F0
:1039A80010501FFA84FE154E06EAC4442543CCF88D
:1039B8001050DCF810508C680EFB04F4C4F31204A9
:1039C8002C43CCF8104029E7CA68002A3FF429AFF5
:1039D800CCF8142025E7D0F8082812F4807F06D107
:1039E800D3F8002B42F00052C3F8002B1DE7D3F8A0
:1039F800002B42F08052C3F8002B16E70000F81F96
:103A080000B583B0844608464FEA920E02F00302DE
:103A1800002305E00CF58051096840F8041B0133C8
:103A28007345F7D39AB10CF5805CDCF8003001934C
:103A38004FF0000C5FFA8CF3D900019BCB4000F8E3
:103A4800013B0CF1010C013A92B2002AF2D103B009
:103A58005DF804FB0B784A78012A14D000EB431078
:103A6800D0F8002B002A06DB2BB1D0F8003B23F05E
:103A78008043C0F8003BD0F8003B43F40013C0F883
:103A8800003B0020704700EB4310D0F80029002AC3
:103A980006DB2BB1D0F8003923F08043C0F8003999
:103AA800D0F8003943F40013C0F80039E9E70B787F
:103AB8004A78012A0ED000EB4310D0F8003B23F4DB
:103AC8000013C0F8003BCB78023BDBB2012B15D9C1
:103AD8000020704700EB4310D0F8003923F400139E
:103AE800C0F80039CB78023BDBB2012BF0D8D0F814
:103AF800003943F08053C0F80039E9E7D0F8003BBB
:103B080043F08053C0F8003BE2E7D0F8003823F4D4
:103B1800FE63C0F80038D0F80038090101F4FE61EE
:103B28001943C0F8001800207047D0F8003E23F071
:103B38000303C0F8003ED0F8043823F00203C0F8AD
:103B4800043800207047D0F8003E23F00303C0F883
:103B5800003ED0F8043843F00203C0F804380020CF
:103B680070474269806910407047D0F8183800F5EE
:103B78000060C0691840000C7047D0F8183800F58C
:103B88000060C069184080B2704700EB4111D1F85D
:103B9800082B00F5006040691040704710B4D0F859
:103BA8001048D0F8343801F00F02D340DB01DBB203
:103BB800234300EB411000F51060806818405DF861
:103BC800044B7047406900F00100704738B505465E
:103BD800C36823F0C043C360012913D019BBC3686D
:103BE80043F08043C3600024012000F03DFD013410
:103BF8002846FFF7E7FF08B1312CF5D9322C14D04D
:103C0800002038BDC36843F00053C360002401207E
:103C180000F02AFD01342846FFF7D4FF0128EDD033
:103C2800312CF4D9EAE70120EBE70120E9E7D0F8E5
:103C3800003923F4FF6323F00703C0F80039D0F8F4
:103C4800043843F48073C0F804380020704700003B
:103C580010B4046C154B9C4203D9D0F8003B002BE0
:103C680016DB0024C0F8104BD0F8104B44F40024A5
:103C7800C0F8104BD0F8104B44F01804C0F8104BA3
:103C8800D0F8104B44F0C044C0F8104B012903D0C1
:103C980000205DF8044B7047C0F8142BD0F8003BA7
:103CA80043F08023C0F8003BF2E700BF0A30544FCE
:103CB800002800F0E08170B582B00446036813F074
:103CC800010F3BD09F4B9B6803F00C03042B2CD0B7
:103CD8009C4B9B6803F00C03082B21D06368B3F559
:103CE800803F4FD0B3F5A02F52D0964B1A6822F4DC
:103CF80080321A601A6822F480221A606368002BE6
:103D080050D000F0ABFC05468E4B1B6813F4003F07
:103D180014D100F0A3FC401B6428F5D90320B1E1BD
:103D2800884B5B6813F4800FD8D0864B1B6813F45C
:103D3800003F03D06368002B00F09F81236813F0D5
:103D4800020F54D07F4B9B6813F00C0F3ED07D4B75
:103D58009B6803F00C03082B33D0E368002B68D072
:103D6800794B01221A6000F079FC0546754B1B68F7
:103D780013F0020F54D100F071FC401B0228F5D952
:103D880003207FE16F4A136843F480331360B5E77B
:103D98006C4B1A6842F480221A601A6842F4803226
:103DA8001A60ABE700F05AFC0546664B1B6813F433
:103DB800003FC3D000F052FC401B6428F5D9032013
:103DC80060E1604B5B6813F4800FC6D15D4B1B68E4
:103DD80013F0020F03D0E368012B40F05081594AD9
:103DE800136823F0F803216943EAC10313602368C9
:103DF80013F0080F42D063696BB3534B0122C3F829
:103E0800802E00F02BFC05464E4B5B6F13F0020F23
:103E180034D100F023FC401B0228F5D9032031E1FE
:103E2800484A136823F0F803216943EAC103136081
:103E3800DDE7454B00221A6000F010FC0546414BB7
:103E48001B6813F0020FD2D000F008FC401B0228B8
:103E5800F5D9032016E13C4B0022C3F8802E00F070
:103E6800FDFB0546374B5B6F13F0020F06D000F0E1
:103E7800F5FB401B0228F5D9032003E1236813F062
:103E8800040F77D02F4B1B6C13F0805F33D10023C6
:103E980001932C4B1A6C42F080521A641B6C03F08D
:103EA80080530193019B0125284B1B6813F4807FE5
:103EB80023D0A368012B34D0052B38D0214B1A6F9F
:103EC80022F001021A671A6F22F004021A67A36827
:103ED800002B3DD000F0C2FB06461A4B1B6F13F0B7
:103EE800020F46D100F0BAFB801B41F2883398429A
:103EF800F3D90320C6E00025D6E7144A136843F433
:103F08008073136000F0AAFB0646104B1B6813F47D
:103F1800807FCED100F0A2FB801B0228F5D90320B8
:103F2800B0E0084A136F43F001031367CFE7054B6E
:103F38001A6F42F004021A671A6F42F001021A67F8
:103F4800C5E700BF0038024000004742007000404B
:103F580000F084FB0646524B1B6F13F0020F08D08B
:103F680000F07CFB801B41F288339842F3D9032090
:103F780088E0EDB9A369002B00F08380484A926875
:103F880002F00C02082A51D0022B17D0454B002210
:103F98001A6600F063FB0446414B1B6813F0007F70
:103FA80042D000F05BFB001B0228F5D9032069E032
:103FB8003B4A136C23F080531364DBE7394B002230
:103FC8001A6600F04BFB0546354B1B6813F0007F63
:103FD80006D000F043FB401B0228F5D9032051E02E
:103FE800E369226A1343626A43EA8213A26A5208A7
:103FF800013A43EA0243E26A43EA0263284A536009
:10400800284B01221A6600F029FB0446244B1B6842
:1040180013F0007F06D100F021FB001B0228F5D920
:1040280003202FE000202DE000202BE0012B2BD0D7
:104038001B4B5B6803F48001E269914226D103F0CF
:104048003F02216A8A4223D1616A47F6C0721A4048
:10405800B2EB811F1ED103F44031A26A5208013A23
:10406800B1EB024F18D103F07063E26AB3EB026F51
:1040780014D1002006E001207047012002E0012051
:1040880000E0002002B070BD0120FBE70120F9E745
:104098000120F7E70120F5E70120F3E70120F1E728
:1040A800003802400000474208B52F4B9B6803F0D8
:1040B8000C03082B01D02D4808BD2B4B5A6802F081
:1040C8003F025B6813F4800F2AD0274B5968C1F36D
:1040D800881C4FEA4C11B1EB0C006EEB0E0E4FEA48
:1040E8008E1343EA90638101091A63EB0E03DB0028
:1040F80043EA5173C90011EB0C0C43F10003990218
:1041080000234FEA8C2041EA9C51FCF79FFC164B98
:104118005B68C3F3014301335B00B0FBF3F0CBE70B
:10412800114B5968C1F3881C4FEA4C11B1EB0C00D4
:104138006EEB0E0E4FEA8E1343EA90638101091A63
:1041480063EB0E03DB0043EA5173C90011EB0C0C5F
:1041580043F10003990200234FEA8C2041EA9C5165
:10416800FCF774FCD3E700BF003802400024F400D9
:10417800002800F09B8070B50D4604464F4B1B6825
:1041880003F007038B4208D2CBB24C4A1370136872
:1041980003F007038B4240F08B80236813F0020F73
:1041A80017D013F0040F04D0454A936843F4E05342
:1041B8009360236813F0080F04D0414A936843F4CE
:1041C800604393603E4A936823F0F003A1680B4371
:1041D8009360236813F0010F32D06368012B21D05C
:1041E8009A1E012A25D9364A126812F0020F61D0A8
:1041F80033498A6822F0030213438B6000F02EFAD9
:1042080006462F4B9B6803F00C036268B3EB820FE2
:1042180016D000F023FA801B41F288339842F0D977
:10422800032042E0264A126812F4003FE0D1012040
:104238003BE0234A126812F0007FD9D1012034E014
:104248001E4B1B6803F00703AB4207D9EAB21B4BAE
:104258001A701B6803F00703AB422DD1236813F0D3
:10426800040F06D0164A936823F4E053E1680B4321
:104278009360236813F0080F07D0114A936823F45A
:104288006043216943EAC1039360FFF70DFF0C4BBC
:104298009B68C3F303130B4AD35CD8400A4B1860DE
:1042A8000A4B186800F08EF9002070BD0120704795
:1042B8000120FAE70120F8E70120F6E7003C024078
:1042C80000380240E0890008000000206C0000204F
:1042D800014B1868704700BF0000002008B5FFF7C1
:1042E800F7FF044B9B68C3F38223034AD35CD8408F
:1042F80008BD00BF00380240F089000800230F2BDA
:1043080000F2E48070B582B060E085685E00032446
:10431800B44025EA0405CC68B4402C438460456861
:1043280025EA02054C68C4F300129A402A43426009
:104338005AE0DC08083450F8246003F007029500BE
:104348000F22AA4026EA020E0A69AA4042EA0E0291
:1043580040F824205CE0072200E0002202FA0EF276
:104368002A4302345A4D45F824205A4A14686FEA01
:104378000C0224EA0C054E6816F4803F01D04CEA82
:104388000405544C2560646802EA04054E6816F476
:10439800003F01D04CEA04054E4C6560A46802EA6F
:1043A80004054E6816F4801F01D04CEA0405494CF8
:1043B800A560E46822404D6815F4001F01D04CEA5E
:1043C8000402444CE26001330F2B7DD801229A404D
:1043D8000C6804EA020C32EA0404F4D14C6804F0D4
:1043E8000304013C012C90D94A6802F00302032A15
:1043F80009D0C4685D000322AA4024EA02048A683E
:10440800AA402243C2604A6802F00302022A90D0FE
:1044180004684FEA430E032202FA0EF224EA020469
:104428004A6802F0030202FA0EF2224302604A6866
:1044380012F4403FC7D000220192274A546C44F43A
:1044480080445464526C02F480420192019A9C08A0
:10445800A51C1F4A52F8255003F003024FEA820EAA
:104468000F2202FA0EF225EA02051C4A90423FF496
:1044780074AF02F5806290421AD002F580629042D1
:1044880018D002F58062904216D002F58062904200
:1044980014D002F58062904212D002F580629042F8
:1044A80010D002F5806290423FF455AF082255E7DC
:1044B800012253E7022251E703224FE704224DE786
:1044C80005224BE7062249E702B070BD704700BFDE
:1044D80000380140003C0140003802400000024022
:1044E8000AB181617047090481617047074AD3683E
:1044F80023F4E0631B041B0C000200F4E060034398
:1045080043F0BF6343F40033D360704700ED00E02D
:1045180000B5194BDB68C3F30223C3F1070CBCF1E8
:10452800040F28BF4FF0040C03F1040EBEF1060F70
:1045380018D9033B4FF0FF3E0EFA0CFC21EA0C01A0
:1045480099400EFA03F322EA0303194300280BDB10
:104558000901C9B200F1604000F5614080F800131C
:104568005DF804FB0023E5E700F00F000901C9B27C
:10457800024B1954F4E700BF00ED00E014ED00E031
:10458800002807DB00F01F02400901239340024A7C
:1045980042F82030704700BF00E100E00138B0F178
:1045A800807F0BD24FF0E0235861054AF02182F852
:1045B80023100020986107221A6170470120704774
:1045C80000ED00E010B504460E4B18784FF47A73EE
:1045D800B3FBF0F30C4A1068B0FBF3F0FFF7DEFF13
:1045E80068B90F2C01D901200AE0002221464FF0BA
:1045F800FF30FFF78DFF054B1C60002000E0012015
:1046080010BD00BF68000020000000206C000020E2
:1046180008B50B4B1A6842F400721A601A6842F423
:1046280080621A601A6842F480721A600320FFF7E9
:104638005DFF0020FFF7C6FFFDF75CFD002008BD09
:10464800003C0240034A1168034B1B780B4413607B
:10465800704700BFE427002068000020014B18685D
:10466800704700BFE427002038B50446FFF7F6FF7F
:104678000546B4F1FF3F02D0044B1B781C44FFF7FA
:10468800EDFF401BA042FAD338BD00BF68000020F0
:1046980003685A6912F4806F01D1002070476FF4E3
:1046A80080625A6100230363202280F83D2080F84D
:1046B8003E30026C42F00402026480F83C30012073
:1046C80070472DE9F04107460D4690461E4624E006
:1046D800FFF7C4FF069BC01AB04200D8EEB900230A
:1046E8003B63202287F83D2087F83E303A6C42F041
:1046F80020023A6487F83C3001201EE03B689C6940
:1047080025EA040C1FFA8CFCBCFA8CFC4FEA5C1CF2
:10471800E04511D1B6F1FF3FDAD1C5F30743012BCC
:10472800ECD13B685B6925EA030C1FFA8CFCBCFAE8
:104738008CFC4FEA5C1CEBE70020BDE8F0812DE91A
:10474800F04105460E46174698463DE01A6842F481
:1047580000721A602B686FF480625A6100232B6321
:10476800202285F83D2085F83E302A6C42F004026C
:104778002A6485F83C30012034E0FFF76FFFA0EB96
:104788000800B84200D8FFB900232B63202285F81F
:104798003D2085F83E302A6C42F020022A6485F8D4
:1047A8003C3001201EE02B689C6926EA0404A4B270
:1047B800003C18BF0124A4B12B685A6912F4806F19
:1047C800C4D1B7F1FF3FD8D1C6F30743012BEAD1D3
:1047D8002B685C6926EA0404A4B2003C18BF0124D3
:1047E800E9E70020BDE8F08170B504460D4616469D
:1047F80023685B6913F0800F1CD12046FFF748FF40
:10480800D0B9B5F1FF3FF3D0FFF728FF801BA842CE
:1048180001D8002DECD100232363202284F83D2009
:1048280084F83E30226C42F02002226484F83C3046
:10483800012000E0002070BD0120FCE72DE9F043D5
:1048480085B004460D4691461F46DDF830800D9E22
:104858000368196841F48071196000964346002284
:104868004FF00111FFF72DFF60B9236805F0FE0531
:104878001D613346424626492046FFF760FF68B16E
:10488800012008E023681B6813F4807F02D04FF4EE
:1048980000732364032005B0BDE8F083002303936D
:1048A80023685A6903929B690393039B32464146E6
:1048B8002046FFF799FF30B9012F0FD123685FFA1F
:1048C80089F61E61E7E7236C042B01D00120E2E79B
:1048D8002268136843F400731360F7E723684FEA0C
:1048E80019221A61324641462046FFF77DFF20B95A
:1048F80023685FFA89F61E61CDE7236C042B01D08B
:104908000120C8E72268136843F400731360F7E7CF
:10491800020001002DE9F04784B004460D46164612
:1049280099460C9FDDF834800268136843F480636D
:1049380013600368196841F480711960CDF800802C
:104948003B4600224FF00111FFF7BBFE70B95FFA3A
:1049580085FA236805F0FE051D6143463A4641493C
:104968002046FFF7ECFE68B1012008E023681B68C9
:1049780013F4807F02D04FF400732364032004B043
:10498800BDE8F0870023039323685A6903929B6963
:104998000393039B424639462046FFF725FF80B91B
:1049A800B9F1010F18D12368F6B21E6142463946A3
:1049B8002046FFF719FF68B3236C042B24D001208D
:1049C800DDE7236C042B01D00120D8E722681368A7
:1049D80043F400731360F7E72368320A1A6142460A
:1049E80039462046FFF700FF18B92368F6B21E6162
:1049F800DCE7236C042B01D00120C0E72268136890
:104A080043F400731360F7E72268136843F40073F4
:104A18001360D4E72268136843F480731360CDF8F9
:104A280000803B4600224FF001112046FFF749FE67
:104A380068B922684AF00103136143463A460949B6
:104A48002046FFF77CFE002899D0012097E72368CD
:104A58001B6813F4807F02D04FF400732364032093
:104A68008DE700BF0200010070B504460D461646EA
:104A780023685B6913F0040F1CD12046FFF708FE7A
:104A8800D0B9B5F1FF3FF3D0FFF7E8FD801BA8428E
:104A980001D8002DECD100232363202284F83D2087
:104AA80084F83E30226C42F02002226484F83C30C4
:104AB800012000E0002070BD0120FCE770B505462C
:104AC8000C4616462B68596911F0400F29D15969CF
:104AD80011F0100F15D1FFF7C1FD801BA04201D8BE
:104AE800002CEFD100232B63202285F83D2085F888
:104AF8003E302A6C42F020022A6485F83C300120BE
:104B080070BD6FF010025A6100232B63202285F8D4
:104B18003D2085F83E302A6C2A6485F83C30012017
:104B2800EEE70020ECE70000002800F0CC8070B52C
:104B3800044690F83D30002B77D0242384F83D308C
:104B48002268136823F0010313602268136843F492
:104B5800004313602268136823F400431360FFF7CF
:104B6800BDFB62685A4B9A4264D85A4B98428CBF34
:104B780000230123002B40F0A8805749A1FB0031F6
:104B88008B0C25686A6822F03F0242EA91426A600B
:104B980021680A6A22F03F0266684D4DAE424FD83E
:104BA800013313430B622168CA6922F44F4222F091
:104BB800FF026668464B9E424CD8431E7600B3FB04
:104BC800F6F3013340F6FC70034278D0C3F30B03CD
:104BD8001343CB6121680B6823F0C003E269206AA4
:104BE800024313430B6021688B6823F4034323F0CB
:104BF800FF032269E068024313438B602168CB6896
:104C080023F0FF036269A06902431343CB60226863
:104C1800136843F00103136000202064202384F804
:104C28003D30206384F83E0070BD80F83C30FCF7CE
:104C3800A3FF82E7294B98428CBF0023012399E701
:104C48004FF4967505FB03F3254DA5FB03539B090C
:104C58000133A6E7A368BBB9451E06EB460CB5FBB6
:104C6800FCF50135C5F30B05B5FA85F56D0945BBAE
:104C7800C3B9013806EB4603B0FBF3F30133C3F3C2
:104C88000B0343F40043A3E7451E06EB860C0CEB2D
:104C98008C0CB5FBFCF50135C5F30B05B5FA85F5AC
:104CA8006D09E4E7013806EB860303EB8303B0FBE9
:104CB800F3F30133C3F30B0343F4404388E70423BE
:104CC80086E7012384E7012070470120ACE700BF95
:104CD800A08601007F841E0083DE1B43FF083D0081
:104CE800D34D62102DE9F04383B004460F46904639
:104CF80099460C9EFFF7B2FC054694F83D00C0B2F9
:104D0800202803D0022003B0BDE8F08300951923C2
:104D180001224B492046FFF7D4FC002840F0898047
:104D280094F83C30012B00F08680012384F83C3055
:104D380023681A6812F0010F03D11A6842F00102C1
:104D48001A602268136823F400631360212384F82F
:104D58003D30402384F83E30002323640A9B63627D
:104D6800BDF82C306385638D2385364BE36201954E
:104D780000964B46424639462046FFF75FFD00281D
:104D88005BD1238D002B35D02A4631462046FFF7CC
:104D98002BFD20BB626A236812781A61626A531C71
:104DA8006362218D013989B22185638D9BB2013BF4
:104DB8009BB263852368586910F0040FE1D000297D
:104DC800DFD052781A61636A01336362238D013B35
:104DD8002385638D9BB2013B9BB26385D1E7236C2E
:104DE800042B01D001208EE72268136843F4007376
:104DF8001360F7E72A4631462046FFF735FE50B1E3
:104E0800236C042B01D001207DE72268136843F44A
:104E180000731360F7E72268136843F400731360A4
:104E2800202384F83D30002384F83E3084F83C3059
:104E380069E7022067E7022065E7012063E700BF12
:104E4800020010000000FFFF2DE9F04387B0044680
:104E58000F4690469946109EFFF700FC054694F8C9
:104E68003D00C0B2202804D00227384607B0BDE86C
:104E7800F08300951923012288492046FFF721FC79
:104E8800002840F0438194F83C30012B00F0408129
:104E9800012384F83C3023681A6812F0010F03D10B
:104EA8001A6842F001021A602268136823F400634A
:104EB8001360222384F83D30402384F83E300023D9
:104EC80023640E9B6362BDF83C306385638D238544
:104ED800734BE362019500964B464246394620469D
:104EE800FFF718FD0746002840F01481238D5BB9B1
:104EF800029323685A6902929A690292029A1A687E
:104F080042F400721A6075E0012B0AD0022B1AD005
:104F18000023059323685A6905929B690593059BAD
:104F280068E02268136823F4806313600023039306
:104F380023685A6903929A690392039A1A6842F499
:104F480000721A6056E02268136823F480631360C5
:104F58002268136843F400631360002304932368F2
:104F68005A6904929B690493049B43E02A4631469C
:104F78002046FFF7A3FD002840F0CE8023681A6979
:104F8800636A1A70636A01336362238D013B238568
:104F9800638D9BB2013B9BB263852BE00095334642
:104FA800002240492046FFF78CFB002840F0B680DD
:104FB8002268136843F40073136023681A69636AEC
:104FC8001A70626A531C6362238D013B2385638DCB
:104FD8009BB2013B9BB2638523681B695370636A6C
:104FE80001336362238D013B2385638D9BB2013BB3
:104FF8009BB26385238D002B7FD0032B54D8012BC4
:10500800B4D0022BCAD00095334600222549204649
:10501800FFF757FB002840F083802268136823F4C9
:105028008063136023681A69636A1A70636A0133BC
:105038006362238D013B2385638D9BB2013B9BB249
:10504800638500953346002216492046FFF739FB51
:10505800002867D12268136843F40073136023683B
:105068001A69636A1A70626A531C6362238D013B72
:105078002385638D9BB2013B9BB2638523681B69C3
:105088005370636A01336362238D013B2385638D0B
:105098009BB2013B9BB26385ACE700BF02001000E6
:1050A8000000FFFF040001002A4631462046FFF7B2
:1050B80005FD002838D123681A69636A1A70626A84
:1050C800531C6362238D013B2385638D9BB2013B97
:1050D8009BB263852368596911F0040F8AD01B6954
:1050E8005370636A01336362238D013B2385638DAB
:1050F8009BB2013B9BB263857CE7202384F83D305B
:10510800002384F83E3084F83C30AEE60227ACE653
:105118000227AAE60127A8E60127A6E60127A4E6B2
:105128000127A2E60127A0E601279EE62DE9F04720
:1051380082B00546884617461E46FFF78FFA0A9B37
:105148001B1A03EB0609FFF789FA82462B4B1B68EB
:10515800C3F3CB3309FB03F301932B689C6838EA4C
:1051680004030CBF4FF0010C4FF0000CBC4540D0BD
:10517800B6F1FF3FF1D0FFF771FAA0EB0A004845FE
:105188000AD2B9F1000F07D0019A02B14A46019B31
:10519800013B01939146E0E72A68536823F0E00356
:1051A80053606B68B3F5827F0BD0AB6AB3F5005FD1
:1051B80014D0012385F85130002385F8503003209E
:1051C80018E0AB68B3F5004F02D0B3F5806FECD1AF
:1051D8002A68136823F040031360E6E72A68136817
:1051E80023F4005313602A68136843F400531360D0
:1051F800DFE7002002B0BDE8F08700BF0000002014
:1052080010B584B00446164B1868164BA3FB003043
:10521800400D4FF47A7303FB00F003906368B3F515
:10522800827F0BD0039BBBB1039B013B0393236895
:105238009B6813F0800FF5D100200EE000920B461A
:10524800002280212046FFF771FF30B1636D43F0E3
:1052580020036365032000E0002004B010BD00BFF8
:1052680000000020819F5E1610B582B004460B46F0
:105278004168B1F5827F14D06168B1F5827F2AD187
:10528800A168B1F5806F19D00092002280212046D4
:10529800FFF74CFF30B3636D43F0200363650320D1
:1052A80020E08168B1F5004F02D0B1F5806FE3D1FD
:1052B8002068016821F040010160DDE700920022CA
:1052C80001212046FFF732FF60B1636D43F02003F0
:1052D8006365032006E00092002201212046FFF7C3
:1052E80025FF08B902B010BD636D43F02003636564
:1052F8000320F7E700285AD010B50446436A33B9AB
:105308004368B3F5827F05D00023C36102E0002320
:10531800036143610023A36294F85130002B40D00D
:10532800022384F851302268136823F04003136085
:10533800636803F48273A26802F404421343E268C8
:1053480002F400621343226902F002021343626905
:1053580002F001021343A26902F400721343E269E6
:1053680002F038021343226A02F080021343A26A51
:1053780002F40052216813430B60638B03F00403AB
:10538800626A02F01002216813434B602268D369F5
:1053980023F40063D36100206065012384F8513051
:1053A80010BD84F850302046FCF7B8FCB8E701205F
:1053B80070472DE9F04383B01D4690F85030012B1B
:1053C80000F0D180044688469146012380F8503089
:1053D800FFF744F9074694F85160F6B2012E40F001
:1053E800AF80B8F1000F00F0AC80B9F1000F00F009
:1053F800A880032384F8513000236365C4F8308003
:10540800A4F83490A4F83690A363A387E387636471
:105418002364A368B3F5004F1ED023681A6812F0FE
:10542800400F03D11A6842F040021A60E368B3F5EE
:10543800006F1CD0636813B1B9F1010F52D1226B10
:10544800236812781A73236B01332363E38E9BB2AC
:10545800013B9BB2E38645E02268136823F04003D2
:1054680013602268136843F480431360D5E76368C8
:1054780013B1B9F1010F16D1226B23681288DA60D3
:10548800236B02332363E38E9BB2013B9BB2E3861B
:1054980009E0FFF7E3F8C01BA84202D3B5F1FF3FCC
:1054A80059D1002D59D0E38E9BB2002B33D02368FD
:1054B8009A6812F0020FECD0226B1288DA60236B24
:1054C80002332363E38E9BB2013B9BB2E386EAE798
:1054D800FFF7C4F8C01BA84202D3B5F1FF3F3ED185
:1054E800002D3ED0E38E9BB2ABB123689A6812F0D0
:1054F800020FEDD0226B12781A73236B01332363EA
:10550800B4F836C01FFA8CFC0CF1FF3C1FFA8CFC77
:10551800A4F836C0E6E73A4629462046FFF770FE6B
:1055280008B120236365A36833B901932368DA6857
:1055380001929B680193019B636D13B9002600E0FB
:105548000226012384F85130002384F85030304675
:1055580003B0BDE8F0830326F3E70326F1E703264B
:10556800EFE70326EDE70226F1E72DE9F04383B0E4
:105578001F460A9D90F85030012B00F01081044618
:1055880088469146012380F85030FFF767F80646B1
:1055980094F85130DBB26268012B0AD0B2F5827FF1
:1055A80040F0E380A268002A40F0E980042B40F034
:1055B800E880B8F1000F00F0E680B9F1000F00F0C4
:1055C800E480002F00F0E38094F85130DBB2042B24
:1055D80002D0052384F8513000236365C4F838905D
:1055E800E787A787C4F83080E786A78623646364C3
:1055F80023681A6812F0400F03D11A6842F040027B
:105608001A60E368B3F5006F11D063680BB1012F1E
:105618000BD1226B236812781A73236B013323632F
:10562800E38E9BB2013B9BB2E38601276BE0636884
:105638000BB1012F0BD1226B23681288DA60236B20
:1056480002332363E38E9BB2013B9BB2E3860127BF
:105658001CE023689A6812F0010F0ED0E28F92B214
:105668005AB1DA68A36B1A80A36B0233A363E38F82
:105678009BB2013B9BB2E3870127FEF7EFFF801B3C
:10568800A84203D3B5F1FF3F40F08380E38E9BB27D
:105698001BB9E38F9BB2002B53D023689A6812F092
:1056A800020FD6D0E28E92B2002AD2D0002FD0D0EC
:1056B800226B1288DA60236B02332363E38E9BB27A
:1056C800013B9BB2E3860027C3E723689A6812F080
:1056D800010F0ED0E28F92B25AB1DA68A36B1A703A
:1056E800A36B0133A363E38F9BB2013B9BB2E387B8
:1056F8000127FEF7B3FF831BAB4202D3B5F1FF3F8F
:1057080049D1002D49D0E38E9BB213B9E38F9BB2E8
:10571800BBB123689A6812F0020FD6D0E28E92B21B
:10572800002AD2D0002FD0D0226B12781A73236BA4
:1057380001332363E38E9BB2013B9BB2E3860027D0
:10574800C3E7324629462046FFF75AFD48B9A36801
:1057580063B901932368DA6801929B680193019BFE
:1057680004E020236365012000E00220012384F87F
:105778005130002384F8503003B0BDE8F083022094
:10578800F4E70220F2E70120F0E70120EEE701202C
:10579800ECE70320EAE70320E8E70320E6E7022036
:1057A800EAE72DE9F04383B00446884691461D4652
:1057B8004068B0F5827F38D094F85030012B00F063
:1057C800AE80012384F85030FEF748FF074694F86E
:1057D8005160F6B2012E40F08F80B8F1000F00F052
:1057E8008C80B9F1000F00F08880042384F85130D0
:1057F80000236365C4F83880A4F83C90A4F83E9070
:105808002363A386E38623646364A368B3F5004F28
:1058180019D023681A6812F0400F03D11A6842F0B1
:1058280040021A60E3681BB341E0A368002BC3D1B0
:10583800042384F85130009513460A462046FFF7A2
:1058480094FE06465FE02268136823F04003136065
:105858002268136823F480431360DAE7FEF7FEFE3C
:10586800C01BA84202D3B5F1FF3F50D1002D50D044
:10587800E38F9BB2002B33D023689A6812F0010F94
:10588800ECD0A26B1B7B1370A36B0133A363E38F74
:105898009BB2013B9BB2E387EAE7FEF7DFFEC01B42
:1058A800A84202D3B5F1FF3F35D1002D35D0E38FA3
:1058B8009BB2ABB123689A6812F0010FEDD0DA6899
:1058C800A36B1A80A36B0233A363B4F83EC01FFA1C
:1058D8008CFC0CF1FF3C1FFA8CFCA4F83EC0E6E7F8
:1058E8003A4629462046FFF7BFFC08B120236365E6
:1058F800636D13B9002600E00226012384F85130B5
:10590800002384F85030304603B0BDE8F083032606
:10591800F3E70326F1E70326EFE70326EDE7022680
:10592800F1E7000030B4036A23F001030362036A5D
:105938004268846924F073040D682C4323F0020C38
:105948008B6843EA0C03104DA84203D005F5806527
:10595800A84205D123F00803CD682B4323F00403A4
:10596800094DA84203D005F58065A84205D122F467
:1059780040724D692A438D692A43426084614A68AE
:105988004263036230BC70470000014030B4036AD0
:1059980023F480730362036A4268C46924F0730CB9
:1059A8000C6844EA0C0523F400738C6843EA04236A
:1059B800114CA04203D004F58064A04206D123F420
:1059C8000063CC6843EA042323F480630A4CA042B2
:1059D80003D004F58064A04207D122F440524C69F8
:1059E80042EA04128C6942EA04124260C5614A68BC
:1059F800C263036230BC70470000014030B4036AE0
:105A080023F480530362036A4468C26922F4E642BD
:105A18000D6842EA052223F400538D6843EA0533F2
:105A2800094DA84203D005F58065A84204D124F4A5
:105A380080444D6944EA85144460C2614A6802643E
:105A4800036230BC704700BF0000014010B4036A15
:105A5800046A24F001040462846924F0F00C4CEA1E
:105A6800021223F00A030B43826103625DF8044BC0
:105A7800704710B4046A24F0100404628469036A4D
:105A880024F4704C4CEA023223F0A00343EA0113D9
:105A9800826103625DF8044B7047836823F07003EA
:105AA8000B4343F007038360704770470368304A2D
:105AB800904212D0B0F1804F0FD0A2F57C429042B4
:105AC8000BD002F58062904207D002F580629042C6
